{"abi":[{"type":"function","name":"airdropERC20","inputs":[{"name":"_token","type":"address","internalType":"contract IERC20"},{"name":"_recipients","type":"address[]","internalType":"address[]"},{"name":"_amounts","type":"uint256[]","internalType":"uint256[]"},{"name":"_total","type":"uint256","internalType":"uint256"}],"outputs":[],"stateMutability":"nonpayable"},{"type":"function","name":"disperseToken","inputs":[{"name":"token","type":"address","internalType":"contract IERC20"},{"name":"recipients","type":"address[]","internalType":"address[]"},{"name":"values","type":"uint256[]","internalType":"uint256[]"}],"outputs":[],"stateMutability":"nonpayable"}],"bytecode":{"object":"0x608060405234801561001057600080fd5b50610604806100206000396000f3fe608060405234801561001057600080fd5b50600436106100365760003560e01c806382947abe1461003b578063c73a2d6014610050575b600080fd5b61004e610049366004610310565b610063565b005b61004e61005e366004610471565b610100565b6040516323b872dd60e01b602082018181523360248401523060448401526064928301849052909163a9059cbb60e01b9190600090819083828d5af19050806100ab57600080fd5b506040516020018181528460005b818110156100f357602081028a81013560048501528801356024840152600080604485828f5af1806100ea57600080fd5b506001016100b9565b5050505050505050505050565b6000805b83518110156101465782818151811061011f5761011f610547565b6020026020010151826101329190610573565b91508061013e8161058c565b915050610104565b506040516323b872dd60e01b8152336004820152306024820152604481018290526001600160a01b038516906323b872dd906064016020604051808303816000875af115801561019a573d6000803e3d6000fd5b505050506040513d601f19601f820116820180604052508101906101be91906105a5565b6101c757600080fd5b60005b83518110156102a557846001600160a01b031663a9059cbb8583815181106101f4576101f4610547565b602002602001015185848151811061020e5761020e610547565b60200260200101516040518363ffffffff1660e01b81526004016102479291906001600160a01b03929092168252602082015260400190565b6020604051808303816000875af1158015610266573d6000803e3d6000fd5b505050506040513d601f19601f8201168201806040525081019061028a91906105a5565b61029357600080fd5b8061029d8161058c565b9150506101ca565b5050505050565b6001600160a01b03811681146102c157600080fd5b50565b60008083601f8401126102d657600080fd5b50813567ffffffffffffffff8111156102ee57600080fd5b6020830191508360208260051b850101111561030957600080fd5b9250929050565b6000806000806000806080878903121561032957600080fd5b8635610334816102ac565b9550602087013567ffffffffffffffff8082111561035157600080fd5b61035d8a838b016102c4565b9097509550604089013591508082111561037657600080fd5b5061038389828a016102c4565b979a9699509497949695606090950135949350505050565b634e487b7160e01b600052604160045260246000fd5b604051601f8201601f1916810167ffffffffffffffff811182821017156103da576103da61039b565b604052919050565b600067ffffffffffffffff8211156103fc576103fc61039b565b5060051b60200190565b600082601f83011261041757600080fd5b8135602061042c610427836103e2565b6103b1565b82815260059290921b8401810191818101908684111561044b57600080fd5b8286015b84811015610466578035835291830191830161044f565b509695505050505050565b60008060006060848603121561048657600080fd5b8335610491816102ac565b925060208481013567ffffffffffffffff808211156104af57600080fd5b818701915087601f8301126104c357600080fd5b81356104d1610427826103e2565b81815260059190911b8301840190848101908a8311156104f057600080fd5b938501935b82851015610517578435610508816102ac565b825293850193908501906104f5565b96505050604087013592508083111561052f57600080fd5b505061053d86828701610406565b9150509250925092565b634e487b7160e01b600052603260045260246000fd5b634e487b7160e01b600052601160045260246000fd5b808201808211156105865761058661055d565b92915050565b60006001820161059e5761059e61055d565b5060010190565b6000602082840312156105b757600080fd5b815180151581146105c757600080fd5b939250505056fea2646970667358221220dd0163ee85ad82c770fafe0e2e466d406beeb8b484220f57b8ae6ae50552ae5f64736f6c63430008110033","linkReferences":{}},"methodIdentifiers":{"airdropERC20(address,address[],uint256[],uint256)":"82947abe","disperseToken(address,address[],uint256[])":"c73a2d60"},"id":25}