{"abi":[{"type":"function","name":"deploy","inputs":[{"name":"_bytecode","type":"bytes","internalType":"bytes"},{"name":"_salt","type":"bytes32","internalType":"bytes32"}],"outputs":[{"name":"","type":"address","internalType":"address"}],"stateMutability":"nonpayable"},{"type":"function","name":"preComputeAddress","inputs":[{"name":"_bytecode","type":"bytes","internalType":"bytes"},{"name":"_salt","type":"bytes32","internalType":"bytes32"}],"outputs":[{"name":"","type":"address","internalType":"address"}],"stateMutability":"view"}],"bytecode":{"object":"0x608060405234801561001057600080fd5b506101f6806100206000396000f3fe608060405234801561001057600080fd5b50600436106100365760003560e01c80634af63f021461003b578063f7d4c7861461006a575b600080fd5b61004e61004936600461010b565b6100d4565b6040516001600160a01b03909116815260200160405180910390f35b61004e61007836600461010b565b8151602092830120604080516001600160f81b0319818601523060601b6bffffffffffffffffffffffff191660218201526035810193909352605580840192909252805180840390920182526075909201909152805191012090565b600080828451602086016000f59050803b6100ee57600080fd5b9392505050565b634e487b7160e01b600052604160045260246000fd5b6000806040838503121561011e57600080fd5b823567ffffffffffffffff8082111561013657600080fd5b818501915085601f83011261014a57600080fd5b81358181111561015c5761015c6100f5565b604051601f8201601f19908116603f01168101908382118183101715610184576101846100f5565b8160405282815288602084870101111561019d57600080fd5b82602086016020830137600060209382018401529896909101359650505050505056fea264697066735822122055b19a2e28b72205ab4c1896002225ab11b3c372237e9570f33018dca9e83acf64736f6c63430008110033","linkReferences":{}},"methodIdentifiers":{"deploy(bytes,bytes32)":"4af63f02","preComputeAddress(bytes,bytes32)":"f7d4c786"},"id":26}