{"abi":[{"type":"function","name":"airdropERC20","inputs":[{"name":"_token","type":"address","internalType":"contract IERC20"},{"name":"_recipients","type":"address[]","internalType":"address[]"},{"name":"_amounts","type":"uint256[]","internalType":"uint256[]"},{"name":"_total","type":"uint256","internalType":"uint256"}],"outputs":[],"stateMutability":"nonpayable"},{"type":"function","name":"airdropETH","inputs":[{"name":"_recipients","type":"address[]","internalType":"address[]"},{"name":"_amounts","type":"uint256[]","internalType":"uint256[]"}],"outputs":[],"stateMutability":"payable"}],"bytecode":{"object":"0x608060405234801561001057600080fd5b506102d7806100206000396000f3fe6080604052600436106100295760003560e01c806382947abe1461002e578063c1a3800614610050575b600080fd5b34801561003a57600080fd5b5061004e61004936600461019e565b610063565b005b61004e61005e366004610235565b610100565b6040516323b872dd60e01b602082018181523360248401523060448401526064928301849052909163a9059cbb60e01b9190600090819083828d5af19050806100ab57600080fd5b506040516020018181528460005b818110156100f357602081028a81013560048501528801356024840152600080604485828f5af1806100ea57600080fd5b506001016100b9565b5050505050505050505050565b60008160005b8181101561013d57602081028781013590860135600080808084865af191508161012f57600080fd5b939093019250600101610106565b505034811461014b57600080fd5b5050505050565b60008083601f84011261016457600080fd5b50813567ffffffffffffffff81111561017c57600080fd5b6020830191508360208260051b850101111561019757600080fd5b9250929050565b600080600080600080608087890312156101b757600080fd5b86356001600160a01b03811681146101ce57600080fd5b9550602087013567ffffffffffffffff808211156101eb57600080fd5b6101f78a838b01610152565b9097509550604089013591508082111561021057600080fd5b5061021d89828a01610152565b979a9699509497949695606090950135949350505050565b6000806000806040858703121561024b57600080fd5b843567ffffffffffffffff8082111561026357600080fd5b61026f88838901610152565b9096509450602087013591508082111561028857600080fd5b5061029587828801610152565b9598949750955050505056fea26469706673582212202a6dbb257ad25284e30b300c0482bb048a2e344e97ecd9c9340608f128f11c2764736f6c63430008110033","linkReferences":{}},"methodIdentifiers":{"airdropERC20(address,address[],uint256[],uint256)":"82947abe","airdropETH(address[],uint256[])":"c1a38006"},"id":24}